{
  "_format": "hh-sol-artifact-1",
  "contractName": "GymBounty",
  "sourceName": "contracts/GymBounty.sol",
  "abi": [
    {
      "inputs": [],
      "stateMutability": "nonpayable",
      "type": "constructor"
    },
    {
      "inputs": [],
      "name": "commit",
      "outputs": [],
      "stateMutability": "payable",
      "type": "function"
    },
    {
      "inputs": [
        {
          "internalType": "address",
          "name": "",
          "type": "address"
        },
        {
          "internalType": "uint256",
          "name": "",
          "type": "uint256"
        }
      ],
      "name": "commitments",
      "outputs": [
        {
          "internalType": "bool",
          "name": "commited",
          "type": "bool"
        },
        {
          "internalType": "bool",
          "name": "fulfilled",
          "type": "bool"
        },
        {
          "internalType": "bool",
          "name": "claimed",
          "type": "bool"
        }
      ],
      "stateMutability": "view",
      "type": "function"
    },
    {
      "inputs": [],
      "name": "emergencyWithdraw",
      "outputs": [],
      "stateMutability": "nonpayable",
      "type": "function"
    },
    {
      "inputs": [
        {
          "internalType": "uint256",
          "name": "",
          "type": "uint256"
        }
      ],
      "name": "fulfillments",
      "outputs": [
        {
          "internalType": "uint256",
          "name": "",
          "type": "uint256"
        }
      ],
      "stateMutability": "view",
      "type": "function"
    },
    {
      "inputs": [],
      "name": "fullfill",
      "outputs": [],
      "stateMutability": "nonpayable",
      "type": "function"
    },
    {
      "inputs": [],
      "name": "owner",
      "outputs": [
        {
          "internalType": "address payable",
          "name": "",
          "type": "address"
        }
      ],
      "stateMutability": "view",
      "type": "function"
    },
    {
      "inputs": [],
      "name": "platformWithdraw",
      "outputs": [],
      "stateMutability": "nonpayable",
      "type": "function"
    },
    {
      "inputs": [],
      "name": "price30",
      "outputs": [
        {
          "internalType": "uint256",
          "name": "",
          "type": "uint256"
        }
      ],
      "stateMutability": "view",
      "type": "function"
    },
    {
      "inputs": [
        {
          "internalType": "uint256",
          "name": "_price",
          "type": "uint256"
        }
      ],
      "name": "setPrice30",
      "outputs": [],
      "stateMutability": "nonpayable",
      "type": "function"
    },
    {
      "inputs": [
        {
          "internalType": "uint256",
          "name": "",
          "type": "uint256"
        }
      ],
      "name": "treasury",
      "outputs": [
        {
          "internalType": "uint256",
          "name": "",
          "type": "uint256"
        }
      ],
      "stateMutability": "view",
      "type": "function"
    },
    {
      "inputs": [],
      "name": "withdraw",
      "outputs": [],
      "stateMutability": "nonpayable",
      "type": "function"
    }
  ],
  "bytecode": "0x608060405234801561001057600080fd5b50336000806101000a81548173ffffffffffffffffffffffffffffffffffffffff021916908373ffffffffffffffffffffffffffffffffffffffff1602179055506804e1003b28d9280000600181905550610f39806100706000396000f3fe60806040526004361061009c5760003560e01c80635a08cae5116100645780635a08cae51461013f5780638da5cb5b1461017c57806399ca856c146101a75780639ac7aa3c146101e6578063db2e21bc146101fd578063ed03942d146102145761009c565b8063203ded51146100a15780633c7a3aff146100b85780633ccfd60b146100c25780634c5430a0146100d95780634d48cb6714610116575b600080fd5b3480156100ad57600080fd5b506100b661023f565b005b6100c06103a1565b005b3480156100ce57600080fd5b506100d761053c565b005b3480156100e557600080fd5b5061010060048036038101906100fb9190610aea565b61074e565b60405161010d9190610c18565b60405180910390f35b34801561012257600080fd5b5061013d60048036038101906101389190610aea565b610766565b005b34801561014b57600080fd5b5061016660048036038101906101619190610aea565b61080a565b6040516101739190610c18565b60405180910390f35b34801561018857600080fd5b50610191610822565b60405161019e9190610b86565b60405180910390f35b3480156101b357600080fd5b506101ce60048036038101906101c99190610aae565b610846565b6040516101dd93929190610ba1565b60405180910390f35b3480156101f257600080fd5b506101fb6108a4565b005b34801561020957600080fd5b506102126109b7565b005b34801561022057600080fd5b50610229610a7e565b6040516102369190610c18565b60405180910390f35b60008054906101000a900473ffffffffffffffffffffffffffffffffffffffff1673ffffffffffffffffffffffffffffffffffffffff163373ffffffffffffffffffffffffffffffffffffffff16146102cd576040517f08c379a00000000000000000000000000000000000000000000000000000000081526004016102c490610bd8565b60405180910390fd5b6000479050600062015180426102e39190610c9a565b90506000600190505b601e811161032b57600081836103029190610d25565b90506003600082815260200190815260200160002054846103239190610d25565b9350506102ec565b600083111561039c5760008054906101000a900473ffffffffffffffffffffffffffffffffffffffff1673ffffffffffffffffffffffffffffffffffffffff166108fc849081150290604051600060405180830381858888f1935050505015801561039a573d6000803e3d6000fd5b505b505050565b60015434116103af57600080fd5b600062015180426103c09190610c9a565b9050600060019050600260003373ffffffffffffffffffffffffffffffffffffffff1673ffffffffffffffffffffffffffffffffffffffff16815260200190815260200160002060006001846104169190610c44565b815260200190815260200160002060000160009054906101000a900460ff1615610475576040517f08c379a000000000000000000000000000000000000000000000000000000000815260040161046c90610bf8565b60405180910390fd5b5b601e8111610538576000818361048c9190610c44565b90506001600260003373ffffffffffffffffffffffffffffffffffffffff1673ffffffffffffffffffffffffffffffffffffffff168152602001908152602001600020600083815260200190815260200160002060000160006101000a81548160ff021916908315150217905550601e6001546105099190610c9a565b60036000838152602001908152602001600020600082825461052b9190610c44565b9250508190555050610476565b5050565b6000620151804261054d9190610c9a565b905060006001905060005b601e82116106f8576000828461056e9190610d25565b90506000600260003373ffffffffffffffffffffffffffffffffffffffff1673ffffffffffffffffffffffffffffffffffffffff16815260200190815260200160002060008381526020019081526020016000206040518060600160405290816000820160009054906101000a900460ff161515151581526020016000820160019054906101000a900460ff161515151581526020016000820160029054906101000a900460ff161515151581525050905080600001518015610632575080602001515b801561064057508060400151155b156106f1576001600260003373ffffffffffffffffffffffffffffffffffffffff1673ffffffffffffffffffffffffffffffffffffffff168152602001908152602001600020600084815260200190815260200160002060000160026101000a81548160ff021916908315150217905550600460008381526020019081526020016000205460036000848152602001908152602001600020546106e39190610c9a565b836106ee9190610c44565b92505b5050610558565b6000811115610749573373ffffffffffffffffffffffffffffffffffffffff166108fc829081150290604051600060405180830381858888f19350505050158015610747573d6000803e3d6000fd5b505b505050565b60036020528060005260406000206000915090505481565b60008054906101000a900473ffffffffffffffffffffffffffffffffffffffff1673ffffffffffffffffffffffffffffffffffffffff163373ffffffffffffffffffffffffffffffffffffffff16146107f4576040517f08c379a00000000000000000000000000000000000000000000000000000000081526004016107eb90610bd8565b60405180910390fd5b601e816108019190610ccb565b60018190555050565b60046020528060005260406000206000915090505481565b60008054906101000a900473ffffffffffffffffffffffffffffffffffffffff1681565b6002602052816000526040600020602052806000526040600020600091509150508060000160009054906101000a900460ff16908060000160019054906101000a900460ff16908060000160029054906101000a900460ff16905083565b600062015180426108b59190610c9a565b9050600260003373ffffffffffffffffffffffffffffffffffffffff1673ffffffffffffffffffffffffffffffffffffffff168152602001908152602001600020600082815260200190815260200160002060000160019054906101000a900460ff166109b4576001600260003373ffffffffffffffffffffffffffffffffffffffff1673ffffffffffffffffffffffffffffffffffffffff168152602001908152602001600020600083815260200190815260200160002060000160016101000a81548160ff02191690831515021790555060016004600083815260200190815260200160002060008282546109ac9190610c44565b925050819055505b50565b60008054906101000a900473ffffffffffffffffffffffffffffffffffffffff1673ffffffffffffffffffffffffffffffffffffffff163373ffffffffffffffffffffffffffffffffffffffff1614610a45576040517f08c379a0000000000000000000000000000000000000000000000000000000008152600401610a3c90610bd8565b60405180910390fd5b60008054906101000a900473ffffffffffffffffffffffffffffffffffffffff1673ffffffffffffffffffffffffffffffffffffffff16ff5b60015481565b600081359050610a9381610ed5565b92915050565b600081359050610aa881610eec565b92915050565b60008060408385031215610ac157600080fd5b6000610acf85828601610a84565b9250506020610ae085828601610a99565b9150509250929050565b600060208284031215610afc57600080fd5b6000610b0a84828501610a99565b91505092915050565b610b1c81610d6b565b82525050565b610b2b81610d7d565b82525050565b6000610b3e601583610c33565b9150610b4982610e11565b602082019050919050565b6000610b61606983610c33565b9150610b6c82610e3a565b608082019050919050565b610b8081610da9565b82525050565b6000602082019050610b9b6000830184610b13565b92915050565b6000606082019050610bb66000830186610b22565b610bc36020830185610b22565b610bd06040830184610b22565b949350505050565b60006020820190508181036000830152610bf181610b31565b9050919050565b60006020820190508181036000830152610c1181610b54565b9050919050565b6000602082019050610c2d6000830184610b77565b92915050565b600082825260208201905092915050565b6000610c4f82610da9565b9150610c5a83610da9565b9250827fffffffffffffffffffffffffffffffffffffffffffffffffffffffffffffffff03821115610c8f57610c8e610db3565b5b828201905092915050565b6000610ca582610da9565b9150610cb083610da9565b925082610cc057610cbf610de2565b5b828204905092915050565b6000610cd682610da9565b9150610ce183610da9565b9250817fffffffffffffffffffffffffffffffffffffffffffffffffffffffffffffffff0483118215151615610d1a57610d19610db3565b5b828202905092915050565b6000610d3082610da9565b9150610d3b83610da9565b925082821015610d4e57610d4d610db3565b5b828203905092915050565b6000610d6482610d89565b9050919050565b6000610d7682610d89565b9050919050565b60008115159050919050565b600073ffffffffffffffffffffffffffffffffffffffff82169050919050565b6000819050919050565b7f4e487b7100000000000000000000000000000000000000000000000000000000600052601160045260246000fd5b7f4e487b7100000000000000000000000000000000000000000000000000000000600052601260045260246000fd5b7f47796d426f756e74793a206f6e6c79206f776e65720000000000000000000000600082015250565b7f47796d426f756e74793a20796f7527766520616c726561647920636f6d6d697460008201527f20746f20746865206e6578742066657720646179732e20436f6d656261636b2060208201527f7768656e20796f7572206f75747374616e64696e6720636f6d6d69746d656e7460408201527f73206578706972652e0000000000000000000000000000000000000000000000606082015250565b610ede81610d59565b8114610ee957600080fd5b50565b610ef581610da9565b8114610f0057600080fd5b5056fea2646970667358221220ae34d5185df9f2240a452b970c6e2d4286df16e034b1eba68c8aea60b5eeaa9064736f6c63430008040033",
  "linkReferences": {},
  "deployedLinkReferences": {}
}