{
  "_format": "hh-sol-artifact-1",
  "contractName": "GymBounty",
  "sourceName": "contracts/GymBounty.sol",
  "abi": [
    {
      "inputs": [],
      "stateMutability": "nonpayable",
      "type": "constructor"
    },
    {
      "inputs": [],
      "name": "commit",
      "outputs": [],
      "stateMutability": "payable",
      "type": "function"
    },
    {
      "inputs": [],
      "name": "emergencyWithdraw",
      "outputs": [],
      "stateMutability": "nonpayable",
      "type": "function"
    },
    {
      "inputs": [],
      "name": "fullfill",
      "outputs": [],
      "stateMutability": "nonpayable",
      "type": "function"
    },
    {
      "inputs": [],
      "name": "platformWithdraw",
      "outputs": [],
      "stateMutability": "nonpayable",
      "type": "function"
    },
    {
      "inputs": [
        {
          "internalType": "uint256",
          "name": "_price",
          "type": "uint256"
        }
      ],
      "name": "setPrice30",
      "outputs": [],
      "stateMutability": "nonpayable",
      "type": "function"
    },
    {
      "inputs": [],
      "name": "withdraw",
      "outputs": [],
      "stateMutability": "nonpayable",
      "type": "function"
    }
  ],
  "bytecode": "0x608060405234801561001057600080fd5b50336000806101000a81548173ffffffffffffffffffffffffffffffffffffffff021916908373ffffffffffffffffffffffffffffffffffffffff1602179055506804e1003b28d9280000600181905550610bd9806100706000396000f3fe6080604052600436106100555760003560e01c8063203ded511461005a5780633c7a3aff146100715780633ccfd60b1461007b5780634d48cb67146100925780639ac7aa3c146100bb578063db2e21bc146100d2575b600080fd5b34801561006657600080fd5b5061006f6100e9565b005b61007961024b565b005b34801561008757600080fd5b506100906103e6565b005b34801561009e57600080fd5b506100b960048036038101906100b4919061088b565b6105f8565b005b3480156100c757600080fd5b506100d061069c565b005b3480156100de57600080fd5b506100e76107af565b005b60008054906101000a900473ffffffffffffffffffffffffffffffffffffffff1673ffffffffffffffffffffffffffffffffffffffff163373ffffffffffffffffffffffffffffffffffffffff1614610177576040517f08c379a000000000000000000000000000000000000000000000000000000000815260040161016e906108fa565b60405180910390fd5b60004790506000620151804261018d91906109a1565b90506000600190505b601e81116101d557600081836101ac9190610a2c565b90506003600082815260200190815260200160002054846101cd9190610a2c565b935050610196565b60008311156102465760008054906101000a900473ffffffffffffffffffffffffffffffffffffffff1673ffffffffffffffffffffffffffffffffffffffff166108fc849081150290604051600060405180830381858888f19350505050158015610244573d6000803e3d6000fd5b505b505050565b600154341161025957600080fd5b6000620151804261026a91906109a1565b9050600060019050600260003373ffffffffffffffffffffffffffffffffffffffff1673ffffffffffffffffffffffffffffffffffffffff16815260200190815260200160002060006001846102c0919061094b565b815260200190815260200160002060000160009054906101000a900460ff161561031f576040517f08c379a00000000000000000000000000000000000000000000000000000000081526004016103169061091a565b60405180910390fd5b5b601e81116103e25760008183610336919061094b565b90506001600260003373ffffffffffffffffffffffffffffffffffffffff1673ffffffffffffffffffffffffffffffffffffffff168152602001908152602001600020600083815260200190815260200160002060000160006101000a81548160ff021916908315150217905550601e6001546103b391906109a1565b6003600083815260200190815260200160002060008282546103d5919061094b565b9250508190555050610320565b5050565b600062015180426103f791906109a1565b905060006001905060005b601e82116105a257600082846104189190610a2c565b90506000600260003373ffffffffffffffffffffffffffffffffffffffff1673ffffffffffffffffffffffffffffffffffffffff16815260200190815260200160002060008381526020019081526020016000206040518060600160405290816000820160009054906101000a900460ff161515151581526020016000820160019054906101000a900460ff161515151581526020016000820160029054906101000a900460ff1615151515815250509050806000015180156104dc575080602001515b80156104ea57508060400151155b1561059b576001600260003373ffffffffffffffffffffffffffffffffffffffff1673ffffffffffffffffffffffffffffffffffffffff168152602001908152602001600020600084815260200190815260200160002060000160026101000a81548160ff0219169083151502179055506004600083815260200190815260200160002054600360008481526020019081526020016000205461058d91906109a1565b83610598919061094b565b92505b5050610402565b60008111156105f3573373ffffffffffffffffffffffffffffffffffffffff166108fc829081150290604051600060405180830381858888f193505050501580156105f1573d6000803e3d6000fd5b505b505050565b60008054906101000a900473ffffffffffffffffffffffffffffffffffffffff1673ffffffffffffffffffffffffffffffffffffffff163373ffffffffffffffffffffffffffffffffffffffff1614610686576040517f08c379a000000000000000000000000000000000000000000000000000000000815260040161067d906108fa565b60405180910390fd5b601e8161069391906109d2565b60018190555050565b600062015180426106ad91906109a1565b9050600260003373ffffffffffffffffffffffffffffffffffffffff1673ffffffffffffffffffffffffffffffffffffffff168152602001908152602001600020600082815260200190815260200160002060000160019054906101000a900460ff166107ac576001600260003373ffffffffffffffffffffffffffffffffffffffff1673ffffffffffffffffffffffffffffffffffffffff168152602001908152602001600020600083815260200190815260200160002060000160016101000a81548160ff02191690831515021790555060016004600083815260200190815260200160002060008282546107a4919061094b565b925050819055505b50565b60008054906101000a900473ffffffffffffffffffffffffffffffffffffffff1673ffffffffffffffffffffffffffffffffffffffff163373ffffffffffffffffffffffffffffffffffffffff161461083d576040517f08c379a0000000000000000000000000000000000000000000000000000000008152600401610834906108fa565b60405180910390fd5b60008054906101000a900473ffffffffffffffffffffffffffffffffffffffff1673ffffffffffffffffffffffffffffffffffffffff16ff5b60008135905061088581610b8c565b92915050565b60006020828403121561089d57600080fd5b60006108ab84828501610876565b91505092915050565b60006108c160158361093a565b91506108cc82610ac8565b602082019050919050565b60006108e460698361093a565b91506108ef82610af1565b608082019050919050565b60006020820190508181036000830152610913816108b4565b9050919050565b60006020820190508181036000830152610933816108d7565b9050919050565b600082825260208201905092915050565b600061095682610a60565b915061096183610a60565b9250827fffffffffffffffffffffffffffffffffffffffffffffffffffffffffffffffff0382111561099657610995610a6a565b5b828201905092915050565b60006109ac82610a60565b91506109b783610a60565b9250826109c7576109c6610a99565b5b828204905092915050565b60006109dd82610a60565b91506109e883610a60565b9250817fffffffffffffffffffffffffffffffffffffffffffffffffffffffffffffffff0483118215151615610a2157610a20610a6a565b5b828202905092915050565b6000610a3782610a60565b9150610a4283610a60565b925082821015610a5557610a54610a6a565b5b828203905092915050565b6000819050919050565b7f4e487b7100000000000000000000000000000000000000000000000000000000600052601160045260246000fd5b7f4e487b7100000000000000000000000000000000000000000000000000000000600052601260045260246000fd5b7f47796d426f756e74793a206f6e6c79206f776e65720000000000000000000000600082015250565b7f47796d426f756e74793a20796f7527766520616c726561647920636f6d6d697460008201527f20746f20746865206e6578742066657720646179732e20436f6d656261636b2060208201527f7768656e20796f7572206f75747374616e64696e6720636f6d6d69746d656e7460408201527f73206578706972652e0000000000000000000000000000000000000000000000606082015250565b610b9581610a60565b8114610ba057600080fd5b5056fea2646970667358221220b9c1db0253746965c4352e871bee7bc63df58bf34b51b5ed9c720793e180570464736f6c63430008040033",
  "linkReferences": {},
  "deployedLinkReferences": {}
}